{
  "_format": "hh-sol-artifact-1",
  "contractName": "AnchorContract",
  "sourceName": "contracts/AnchorContract.sol",
  "abi": [
    {
      "anonymous": false,
      "inputs": [
        {
          "indexed": true,
          "internalType": "bytes32",
          "name": "root",
          "type": "bytes32"
        },
        {
          "indexed": false,
          "internalType": "bytes32",
          "name": "prevRoot",
          "type": "bytes32"
        },
        {
          "indexed": false,
          "internalType": "uint256",
          "name": "nonce",
          "type": "uint256"
        },
        {
          "indexed": false,
          "internalType": "string",
          "name": "bundleCID",
          "type": "string"
        },
        {
          "indexed": false,
          "internalType": "address",
          "name": "sequencer",
          "type": "address"
        }
      ],
      "name": "RootAnchored",
      "type": "event"
    },
    {
      "anonymous": false,
      "inputs": [
        {
          "indexed": true,
          "internalType": "bytes32",
          "name": "root",
          "type": "bytes32"
        },
        {
          "indexed": false,
          "internalType": "uint256",
          "name": "timestamp",
          "type": "uint256"
        }
      ],
      "name": "RootRevoked",
      "type": "event"
    },
    {
      "inputs": [
        {
          "internalType": "bytes32",
          "name": "root",
          "type": "bytes32"
        },
        {
          "internalType": "bytes32",
          "name": "prevRoot",
          "type": "bytes32"
        },
        {
          "internalType": "uint256",
          "name": "nonce",
          "type": "uint256"
        },
        {
          "internalType": "string",
          "name": "bundleCID",
          "type": "string"
        }
      ],
      "name": "anchorRoot",
      "outputs": [],
      "stateMutability": "nonpayable",
      "type": "function"
    },
    {
      "inputs": [
        {
          "internalType": "bytes32",
          "name": "",
          "type": "bytes32"
        }
      ],
      "name": "anchors",
      "outputs": [
        {
          "internalType": "bytes32",
          "name": "root",
          "type": "bytes32"
        },
        {
          "internalType": "bytes32",
          "name": "prevRoot",
          "type": "bytes32"
        },
        {
          "internalType": "uint256",
          "name": "nonce",
          "type": "uint256"
        },
        {
          "internalType": "string",
          "name": "bundleCID",
          "type": "string"
        },
        {
          "internalType": "uint256",
          "name": "timestamp",
          "type": "uint256"
        },
        {
          "internalType": "address",
          "name": "sequencer",
          "type": "address"
        },
        {
          "internalType": "bool",
          "name": "revoked",
          "type": "bool"
        }
      ],
      "stateMutability": "view",
      "type": "function"
    },
    {
      "inputs": [
        {
          "internalType": "uint256",
          "name": "",
          "type": "uint256"
        }
      ],
      "name": "anchorsByNonce",
      "outputs": [
        {
          "internalType": "bytes32",
          "name": "",
          "type": "bytes32"
        }
      ],
      "stateMutability": "view",
      "type": "function"
    },
    {
      "inputs": [],
      "name": "currentNonce",
      "outputs": [
        {
          "internalType": "uint256",
          "name": "",
          "type": "uint256"
        }
      ],
      "stateMutability": "view",
      "type": "function"
    },
    {
      "inputs": [
        {
          "internalType": "bytes32",
          "name": "root",
          "type": "bytes32"
        }
      ],
      "name": "getAnchor",
      "outputs": [
        {
          "components": [
            {
              "internalType": "bytes32",
              "name": "root",
              "type": "bytes32"
            },
            {
              "internalType": "bytes32",
              "name": "prevRoot",
              "type": "bytes32"
            },
            {
              "internalType": "uint256",
              "name": "nonce",
              "type": "uint256"
            },
            {
              "internalType": "string",
              "name": "bundleCID",
              "type": "string"
            },
            {
              "internalType": "uint256",
              "name": "timestamp",
              "type": "uint256"
            },
            {
              "internalType": "address",
              "name": "sequencer",
              "type": "address"
            },
            {
              "internalType": "bool",
              "name": "revoked",
              "type": "bool"
            }
          ],
          "internalType": "struct AnchorContract.Anchor",
          "name": "",
          "type": "tuple"
        }
      ],
      "stateMutability": "view",
      "type": "function"
    },
    {
      "inputs": [
        {
          "internalType": "uint256",
          "name": "nonce",
          "type": "uint256"
        }
      ],
      "name": "getAnchorByNonce",
      "outputs": [
        {
          "components": [
            {
              "internalType": "bytes32",
              "name": "root",
              "type": "bytes32"
            },
            {
              "internalType": "bytes32",
              "name": "prevRoot",
              "type": "bytes32"
            },
            {
              "internalType": "uint256",
              "name": "nonce",
              "type": "uint256"
            },
            {
              "internalType": "string",
              "name": "bundleCID",
              "type": "string"
            },
            {
              "internalType": "uint256",
              "name": "timestamp",
              "type": "uint256"
            },
            {
              "internalType": "address",
              "name": "sequencer",
              "type": "address"
            },
            {
              "internalType": "bool",
              "name": "revoked",
              "type": "bool"
            }
          ],
          "internalType": "struct AnchorContract.Anchor",
          "name": "",
          "type": "tuple"
        }
      ],
      "stateMutability": "view",
      "type": "function"
    },
    {
      "inputs": [
        {
          "internalType": "bytes32",
          "name": "root",
          "type": "bytes32"
        }
      ],
      "name": "revokeRoot",
      "outputs": [],
      "stateMutability": "nonpayable",
      "type": "function"
    }
  ],
  "bytecode": "0x608060405234801561001057600080fd5b50610add806100206000396000f3fe608060405234801561001057600080fd5b506004361061007d5760003560e01c8063adb610a31161005b578063adb610a3146100ea578063b01b6d53146100f3578063c631b2ef14610119578063c91978901461012c57600080fd5b8063044a926f1461008257806319fafc12146100975780637feb51d9146100ca575b600080fd5b610095610090366004610714565b61013f565b005b6100b76100a53660046107e2565b60016020526000908152604090205481565b6040519081526020015b60405180910390f35b6100dd6100d83660046107e2565b6102f2565b6040516100c19190610841565b6100b760025481565b6101066101013660046107e2565b61042d565b6040516100c197969594939291906108b0565b6100956101273660046107e2565b610501565b6100dd61013a3660046107e2565b610668565b6000848152602081905260409020600401541561019b5760405162461bcd60e51b8152602060048201526015602482015274149bdbdd08185b1c9958591e48185b98da1bdc9959605a1b60448201526064015b60405180910390fd5b60025482146101dc5760405162461bcd60e51b815260206004820152600d60248201526c496e76616c6964206e6f6e636560981b6044820152606401610192565b6040805160e0810182528581526020808201868152828401868152606084018681524260808601523360a0860152600060c086018190528a81529384905294909220835181559051600182015590516002820155915190919060038201906102449082610988565b506080820151600482015560a08201516005909101805460c0909301511515600160a01b026001600160a81b03199093166001600160a01b0390921691909117919091179055600082815260016020526040812085905560028054916102a983610a48565b9190505550837f0f84e1ff3b3f16aebc9e5f8d6c1ddfaf94c07a6d5e274db28d7d59ea3ea1a6f6848484336040516102e49493929190610a6f565b60405180910390a250505050565b6040805160e0810182526000808252602082018190529181018290526060808201526080810182905260a0810182905260c08101919091526000808381526020019081526020016000206040518060e0016040529081600082015481526020016001820154815260200160028201548152602001600382018054610375906108ff565b80601f01602080910402602001604051908101604052809291908181526020018280546103a1906108ff565b80156103ee5780601f106103c3576101008083540402835291602001916103ee565b820191906000526020600020905b8154815290600101906020018083116103d157829003601f168201915b5050509183525050600482015460208201526005909101546001600160a01b0381166040830152600160a01b900460ff16151560609091015292915050565b60006020819052908152604090208054600182015460028301546003840180549394929391929161045d906108ff565b80601f0160208091040260200160405190810160405280929190818152602001828054610489906108ff565b80156104d65780601f106104ab576101008083540402835291602001916104d6565b820191906000526020600020905b8154815290600101906020018083116104b957829003601f168201915b5050505060048301546005909301549192916001600160a01b0381169150600160a01b900460ff1687565b60008181526020819052604081206004015490036105525760405162461bcd60e51b815260206004820152600e60248201526d149bdbdd081b9bdd08199bdd5b9960921b6044820152606401610192565b600081815260208190526040902060050154600160a01b900460ff16156105ad5760405162461bcd60e51b815260206004820152600f60248201526e105b1c9958591e481c995d9bdad959608a1b6044820152606401610192565b6000818152602081905260409020600501546001600160a01b031633146106075760405162461bcd60e51b815260206004820152600e60248201526d139bdd08185d5d1a1bdc9a5e995960921b6044820152606401610192565b60008181526020819052604090819020600501805460ff60a01b1916600160a01b1790555181907f64513bc8cbca36b20b195297b846679b420c9e534242921dfc6bd89a618f69559061065d9042815260200190565b60405180910390a250565b6040805160e0810182526000808252602082018190529181018290526060808201526080810182905260a0810182905260c0810191909152600080600160008581526020019081526020016000205481526020019081526020016000206040518060e0016040529081600082015481526020016001820154815260200160028201548152602001600382018054610375906108ff565b634e487b7160e01b600052604160045260246000fd5b6000806000806080858703121561072a57600080fd5b843593506020850135925060408501359150606085013567ffffffffffffffff8082111561075757600080fd5b818701915087601f83011261076b57600080fd5b81358181111561077d5761077d6106fe565b604051601f8201601f19908116603f011681019083821181831017156107a5576107a56106fe565b816040528281528a60208487010111156107be57600080fd5b82602086016020830137600060208483010152809550505050505092959194509250565b6000602082840312156107f457600080fd5b5035919050565b6000815180845260005b8181101561082157602081850181015186830182015201610805565b506000602082860101526020601f19601f83011685010191505092915050565b602081528151602082015260208201516040820152604082015160608201526000606083015160e0608084015261087c6101008401826107fb565b9050608084015160a084015260018060a01b0360a08501511660c084015260c0840151151560e08401528091505092915050565b87815286602082015285604082015260e0606082015260006108d560e08301876107fb565b6080830195909552506001600160a01b039290921660a0830152151560c090910152949350505050565b600181811c9082168061091357607f821691505b60208210810361093357634e487b7160e01b600052602260045260246000fd5b50919050565b601f82111561098357600081815260208120601f850160051c810160208610156109605750805b601f850160051c820191505b8181101561097f5782815560010161096c565b5050505b505050565b815167ffffffffffffffff8111156109a2576109a26106fe565b6109b6816109b084546108ff565b84610939565b602080601f8311600181146109eb57600084156109d35750858301515b600019600386901b1c1916600185901b17855561097f565b600085815260208120601f198616915b82811015610a1a578886015182559484019460019091019084016109fb565b5085821015610a385787850151600019600388901b60f8161c191681555b5050505050600190811b01905550565b600060018201610a6857634e487b7160e01b600052601160045260246000fd5b5060010190565b848152836020820152608060408201526000610a8e60808301856107fb565b905060018060a01b03831660608301529594505050505056fea26469706673582212202a96e72ba244932aeb35c9e76e8bcb3081731e07d0e6289227183d8dfb99a64c64736f6c63430008140033",
  "linkReferences": {},
  "deployedLinkReferences": {}
}