{
  "_format": "hh-sol-artifact-1",
  "contractName": "StakingContract",
  "sourceName": "contracts/StakingContract.sol",
  "abi": [
    {
      "inputs": [
        {
          "internalType": "address",
          "name": "tokenAddress",
          "type": "address"
        }
      ],
      "stateMutability": "nonpayable",
      "type": "constructor"
    },
    {
      "anonymous": false,
      "inputs": [
        {
          "indexed": true,
          "internalType": "address",
          "name": "staker",
          "type": "address"
        },
        {
          "indexed": false,
          "internalType": "uint256",
          "name": "amount",
          "type": "uint256"
        }
      ],
      "name": "Slashed",
      "type": "event"
    },
    {
      "anonymous": false,
      "inputs": [
        {
          "indexed": true,
          "internalType": "address",
          "name": "staker",
          "type": "address"
        },
        {
          "indexed": false,
          "internalType": "uint256",
          "name": "amount",
          "type": "uint256"
        }
      ],
      "name": "Staked",
      "type": "event"
    },
    {
      "anonymous": false,
      "inputs": [
        {
          "indexed": true,
          "internalType": "address",
          "name": "staker",
          "type": "address"
        },
        {
          "indexed": false,
          "internalType": "uint256",
          "name": "amount",
          "type": "uint256"
        }
      ],
      "name": "Unstaked",
      "type": "event"
    },
    {
      "inputs": [
        {
          "internalType": "address",
          "name": "staker",
          "type": "address"
        }
      ],
      "name": "getStake",
      "outputs": [
        {
          "components": [
            {
              "internalType": "uint256",
              "name": "amount",
              "type": "uint256"
            },
            {
              "internalType": "uint256",
              "name": "timestamp",
              "type": "uint256"
            },
            {
              "internalType": "bool",
              "name": "active",
              "type": "bool"
            }
          ],
          "internalType": "struct StakingContract.Stake",
          "name": "",
          "type": "tuple"
        }
      ],
      "stateMutability": "view",
      "type": "function"
    },
    {
      "inputs": [],
      "name": "getTotalStakers",
      "outputs": [
        {
          "internalType": "uint256",
          "name": "",
          "type": "uint256"
        }
      ],
      "stateMutability": "view",
      "type": "function"
    },
    {
      "inputs": [],
      "name": "minimumStake",
      "outputs": [
        {
          "internalType": "uint256",
          "name": "",
          "type": "uint256"
        }
      ],
      "stateMutability": "view",
      "type": "function"
    },
    {
      "inputs": [
        {
          "internalType": "address",
          "name": "staker",
          "type": "address"
        },
        {
          "internalType": "uint256",
          "name": "amount",
          "type": "uint256"
        }
      ],
      "name": "slash",
      "outputs": [],
      "stateMutability": "nonpayable",
      "type": "function"
    },
    {
      "inputs": [
        {
          "internalType": "uint256",
          "name": "amount",
          "type": "uint256"
        }
      ],
      "name": "stake",
      "outputs": [],
      "stateMutability": "nonpayable",
      "type": "function"
    },
    {
      "inputs": [
        {
          "internalType": "uint256",
          "name": "",
          "type": "uint256"
        }
      ],
      "name": "stakers",
      "outputs": [
        {
          "internalType": "address",
          "name": "",
          "type": "address"
        }
      ],
      "stateMutability": "view",
      "type": "function"
    },
    {
      "inputs": [
        {
          "internalType": "address",
          "name": "",
          "type": "address"
        }
      ],
      "name": "stakes",
      "outputs": [
        {
          "internalType": "uint256",
          "name": "amount",
          "type": "uint256"
        },
        {
          "internalType": "uint256",
          "name": "timestamp",
          "type": "uint256"
        },
        {
          "internalType": "bool",
          "name": "active",
          "type": "bool"
        }
      ],
      "stateMutability": "view",
      "type": "function"
    },
    {
      "inputs": [],
      "name": "token",
      "outputs": [
        {
          "internalType": "contract StakingToken",
          "name": "",
          "type": "address"
        }
      ],
      "stateMutability": "view",
      "type": "function"
    },
    {
      "inputs": [
        {
          "internalType": "uint256",
          "name": "amount",
          "type": "uint256"
        }
      ],
      "name": "unstake",
      "outputs": [],
      "stateMutability": "nonpayable",
      "type": "function"
    }
  ],
  "bytecode": "0x6080604052683635c9adc5dea0000060015534801561001d57600080fd5b506040516108f23803806108f283398101604081905261003c91610061565b600080546001600160a01b0319166001600160a01b0392909216919091179055610091565b60006020828403121561007357600080fd5b81516001600160a01b038116811461008a57600080fd5b9392505050565b610852806100a06000396000f3fe608060405234801561001057600080fd5b50600436106100935760003560e01c80637a766460116100665780637a76646014610125578063a694fc3a1461015c578063ec5ffac21461016f578063fc0c546a14610178578063fd5e6dd1146101a357600080fd5b806302fb4d851461009857806316934fc4146100ad5780632e17de781461010057806331ed0db414610113575b600080fd5b6100ab6100a6366004610753565b6101b6565b005b6100de6100bb36600461077d565b600260208190526000918252604090912080546001820154919092015460ff1683565b6040805193845260208401929092521515908201526060015b60405180910390f35b6100ab61010e36600461079f565b6102de565b6003545b6040519081526020016100f7565b61013861013336600461077d565b6104ca565b604080518251815260208084015190820152918101511515908201526060016100f7565b6100ab61016a36600461079f565b610537565b61011760015481565b60005461018b906001600160a01b031681565b6040516001600160a01b0390911681526020016100f7565b61018b6101b136600461079f565b61070d565b6001600160a01b0382166000908152600260205260409020548111156102235760405162461bcd60e51b815260206004820152601b60248201527f496e73756666696369656e74207374616b6520746f20736c617368000000000060448201526064015b60405180910390fd5b6001600160a01b0382166000908152600260205260408120805483929061024b9084906107ce565b90915550506001546001600160a01b0383166000908152600260205260409020541015610297576001600160a01b038216600090815260026020819052604090912001805460ff191690555b816001600160a01b03167f4ed05e9673c26d2ed44f7ef6a7f2942df0ee3b5e1e17db4b99f9dcd261a339cd826040516102d291815260200190565b60405180910390a25050565b336000908152600260205260409020548111156103325760405162461bcd60e51b8152602060048201526012602482015271496e73756666696369656e74207374616b6560701b604482015260640161021a565b336000908152600260208190526040909120015460ff166103885760405162461bcd60e51b815260206004820152601060248201526f5374616b65206e6f742061637469766560801b604482015260640161021a565b33600090815260026020526040812080548392906103a79084906107ce565b90915550503360009081526002602052604081205490036103de5733600090815260026020819052604090912001805460ff191690555b60005460405163a9059cbb60e01b8152336004820152602481018390526001600160a01b039091169063a9059cbb906044016020604051808303816000875af115801561042f573d6000803e3d6000fd5b505050506040513d601f19601f8201168201806040525081019061045391906107e7565b6104915760405162461bcd60e51b815260206004820152600f60248201526e151c985b9cd9995c8819985a5b1959608a1b604482015260640161021a565b60405181815233907f0f5bb82176feb1b5e747e28471aa92156a04d9f3ab9f45f28e2d704232b93f75906020015b60405180910390a250565b6104f0604051806060016040528060008152602001600081526020016000151581525090565b506001600160a01b03166000908152600260208181526040928390208351606081018552815481526001820154928101929092529091015460ff1615159181019190915290565b60015481101561057f5760405162461bcd60e51b815260206004820152601360248201527242656c6f77206d696e696d756d207374616b6560681b604482015260640161021a565b6000546040516323b872dd60e01b8152336004820152306024820152604481018390526001600160a01b03909116906323b872dd906064016020604051808303816000875af11580156105d6573d6000803e3d6000fd5b505050506040513d601f19601f820116820180604052508101906105fa91906107e7565b6106385760405162461bcd60e51b815260206004820152600f60248201526e151c985b9cd9995c8819985a5b1959608a1b604482015260640161021a565b33600090815260026020526040812054900361069157600380546001810182556000919091527fc2575a0e9e593c00f959f8c92f12db2869c3395a3b0502d05e2516446f71f85b0180546001600160a01b031916331790555b33600090815260026020526040812080548392906106b0908490610809565b909155505033600081815260026020818152604092839020426001808301919091559201805460ff191690921790915590518381527f9e71bc8eea02a63969f509818f2dafb9254532904319f9dbda79b67bd34a5f3d91016104bf565b6003818154811061071d57600080fd5b6000918252602090912001546001600160a01b0316905081565b80356001600160a01b038116811461074e57600080fd5b919050565b6000806040838503121561076657600080fd5b61076f83610737565b946020939093013593505050565b60006020828403121561078f57600080fd5b61079882610737565b9392505050565b6000602082840312156107b157600080fd5b5035919050565b634e487b7160e01b600052601160045260246000fd5b818103818111156107e1576107e16107b8565b92915050565b6000602082840312156107f957600080fd5b8151801515811461079857600080fd5b808201808211156107e1576107e16107b856fea264697066735822122042336f75b7a8a639bbe95b887e019d5410c494e099610f1f1bb450cf60f5509464736f6c63430008140033",
  "linkReferences": {},
  "deployedLinkReferences": {}
}