{
  "_format": "hh-sol-artifact-1",
  "contractName": "DIDRegistry",
  "sourceName": "contracts/DIDRegistry.sol",
  "abi": [
    {
      "anonymous": false,
      "inputs": [
        {
          "indexed": true,
          "internalType": "string",
          "name": "did",
          "type": "string"
        },
        {
          "indexed": false,
          "internalType": "address",
          "name": "wallet",
          "type": "address"
        }
      ],
      "name": "DIDRegistered",
      "type": "event"
    },
    {
      "anonymous": false,
      "inputs": [
        {
          "indexed": true,
          "internalType": "string",
          "name": "did",
          "type": "string"
        }
      ],
      "name": "DIDRevoked",
      "type": "event"
    },
    {
      "anonymous": false,
      "inputs": [
        {
          "indexed": true,
          "internalType": "string",
          "name": "did",
          "type": "string"
        },
        {
          "indexed": false,
          "internalType": "uint256",
          "name": "reputation",
          "type": "uint256"
        },
        {
          "indexed": false,
          "internalType": "uint256",
          "name": "quota",
          "type": "uint256"
        }
      ],
      "name": "DIDUpdated",
      "type": "event"
    },
    {
      "inputs": [
        {
          "internalType": "string",
          "name": "",
          "type": "string"
        }
      ],
      "name": "dids",
      "outputs": [
        {
          "internalType": "address",
          "name": "wallet",
          "type": "address"
        },
        {
          "internalType": "uint256",
          "name": "reputation",
          "type": "uint256"
        },
        {
          "internalType": "uint256",
          "name": "quota",
          "type": "uint256"
        },
        {
          "internalType": "bool",
          "name": "active",
          "type": "bool"
        },
        {
          "internalType": "uint256",
          "name": "registeredAt",
          "type": "uint256"
        }
      ],
      "stateMutability": "view",
      "type": "function"
    },
    {
      "inputs": [
        {
          "internalType": "string",
          "name": "did",
          "type": "string"
        }
      ],
      "name": "getDID",
      "outputs": [
        {
          "components": [
            {
              "internalType": "address",
              "name": "wallet",
              "type": "address"
            },
            {
              "internalType": "uint256",
              "name": "reputation",
              "type": "uint256"
            },
            {
              "internalType": "uint256",
              "name": "quota",
              "type": "uint256"
            },
            {
              "internalType": "bool",
              "name": "active",
              "type": "bool"
            },
            {
              "internalType": "uint256",
              "name": "registeredAt",
              "type": "uint256"
            }
          ],
          "internalType": "struct DIDRegistry.DIDRecord",
          "name": "",
          "type": "tuple"
        }
      ],
      "stateMutability": "view",
      "type": "function"
    },
    {
      "inputs": [
        {
          "internalType": "address",
          "name": "wallet",
          "type": "address"
        }
      ],
      "name": "getDIDByWallet",
      "outputs": [
        {
          "components": [
            {
              "internalType": "address",
              "name": "wallet",
              "type": "address"
            },
            {
              "internalType": "uint256",
              "name": "reputation",
              "type": "uint256"
            },
            {
              "internalType": "uint256",
              "name": "quota",
              "type": "uint256"
            },
            {
              "internalType": "bool",
              "name": "active",
              "type": "bool"
            },
            {
              "internalType": "uint256",
              "name": "registeredAt",
              "type": "uint256"
            }
          ],
          "internalType": "struct DIDRegistry.DIDRecord",
          "name": "",
          "type": "tuple"
        }
      ],
      "stateMutability": "view",
      "type": "function"
    },
    {
      "inputs": [
        {
          "internalType": "string",
          "name": "did",
          "type": "string"
        },
        {
          "internalType": "address",
          "name": "wallet",
          "type": "address"
        }
      ],
      "name": "registerDID",
      "outputs": [],
      "stateMutability": "nonpayable",
      "type": "function"
    },
    {
      "inputs": [
        {
          "internalType": "string",
          "name": "did",
          "type": "string"
        }
      ],
      "name": "revokeDID",
      "outputs": [],
      "stateMutability": "nonpayable",
      "type": "function"
    },
    {
      "inputs": [
        {
          "internalType": "string",
          "name": "did",
          "type": "string"
        },
        {
          "internalType": "uint256",
          "name": "newQuota",
          "type": "uint256"
        }
      ],
      "name": "updateQuota",
      "outputs": [],
      "stateMutability": "nonpayable",
      "type": "function"
    },
    {
      "inputs": [
        {
          "internalType": "string",
          "name": "did",
          "type": "string"
        },
        {
          "internalType": "uint256",
          "name": "newReputation",
          "type": "uint256"
        }
      ],
      "name": "updateReputation",
      "outputs": [],
      "stateMutability": "nonpayable",
      "type": "function"
    },
    {
      "inputs": [
        {
          "internalType": "address",
          "name": "",
          "type": "address"
        }
      ],
      "name": "walletToDID",
      "outputs": [
        {
          "internalType": "string",
          "name": "",
          "type": "string"
        }
      ],
      "stateMutability": "view",
      "type": "function"
    }
  ],
  "bytecode": "0x608060405234801561001057600080fd5b50610cc5806100206000396000f3fe608060405234801561001057600080fd5b50600436106100885760003560e01c8063da18ceb21161005b578063da18ceb2146100f1578063e07838981461014c578063e4fe33e91461015f578063f44ab5161461017257600080fd5b80634e867c421461008d5780636662666a146100a2578063cf8b8f62146100b5578063cfe3b347146100de575b600080fd5b6100a061009b3660046109c5565b6101fb565b005b6100a06100b0366004610a26565b6102f9565b6100c86100c3366004610a74565b6104f6565b6040516100d59190610aba565b60405180910390f35b6100a06100ec366004610aed565b610590565b6101046100ff366004610a74565b61066b565b6040516100d5919081516001600160a01b0316815260208083015190820152604080830151908201526060808301511515908201526080918201519181019190915260a00190565b61010461015a366004610aed565b610782565b6100a061016d3660046109c5565b6107f5565b6101c7610180366004610aed565b8051602081830181018051600082529282019190930120915280546001820154600283015460038401546004909401546001600160a01b03909316939192909160ff169085565b604080516001600160a01b03909616865260208601949094529284019190915215156060830152608082015260a0016100d5565b60008260405161020b9190610b2a565b9081526040519081900360200190206003015460ff166102635760405162461bcd60e51b815260206004820152600e60248201526d444944206e6f742061637469766560901b60448201526064015b60405180910390fd5b806000836040516102749190610b2a565b90815260405190819003602001812060020191909155610295908390610b2a565b60405180910390207fdb65f90272a25a1816c7b3b65f0f6451911df500a25558e344adf8c257519cd36000846040516102ce9190610b2a565b9081526040805160209281900383018120600101548152918201859052015b60405180910390a25050565b60006001600160a01b03166000836040516103149190610b2a565b908152604051908190036020019020546001600160a01b0316146103735760405162461bcd60e51b815260206004820152601660248201527511125108185b1c9958591e481c9959da5cdd195c995960521b604482015260640161025a565b6001600160a01b0381166000908152600160205260409020805461039690610b46565b1590506103e55760405162461bcd60e51b815260206004820152601960248201527f57616c6c657420616c7265616479207265676973746572656400000000000000604482015260640161025a565b6040805160a0810182526001600160a01b0383168152606460208201526103e881830152600160608201524260808201529051600090610426908590610b2a565b9081526040805160209281900383019020835181546001600160a01b0319166001600160a01b0391821617825584840151600180840191909155858401516002840155606086015160038401805460ff1916911515919091179055608090950151600490920191909155841660009081529290915290206104a78382610bcf565b50816040516104b69190610b2a565b6040519081900381206001600160a01b0383168252907fd59e4d670f6e249831d6f8ce560f47ced54b3f4203e2d0050dc495fd6b919dd2906020016102ed565b6001602052600090815260409020805461050f90610b46565b80601f016020809104026020016040519081016040528092919081815260200182805461053b90610b46565b80156105885780601f1061055d57610100808354040283529160200191610588565b820191906000526020600020905b81548152906001019060200180831161056b57829003601f168201915b505050505081565b6000816040516105a09190610b2a565b9081526040519081900360200190206003015460ff166105f85760405162461bcd60e51b815260206004820152601360248201527211125108185b1c9958591e481c995d9bdad959606a1b604482015260640161025a565b600080826040516106099190610b2a565b908152604051908190036020018120600301805492151560ff1990931692909217909155610638908290610b2a565b604051908190038120907f8d5d0f9333534da02ef5f341fe3f88a64f03b3d4ca4aef5bfdb6e3d5cdece10190600090a250565b6106736108e8565b6001600160a01b0382166000908152600160205260408120805461069690610b46565b80601f01602080910402602001604051908101604052809291908181526020018280546106c290610b46565b801561070f5780601f106106e45761010080835404028352916020019161070f565b820191906000526020600020905b8154815290600101906020018083116106f257829003601f168201915b505050505090506000816040516107269190610b2a565b90815260408051918290036020908101832060a08401835280546001600160a01b03168452600181015491840191909152600281015491830191909152600381015460ff16151560608301526004015460808201529392505050565b61078a6108e8565b60008260405161079a9190610b2a565b90815260408051918290036020908101832060a08401835280546001600160a01b03168452600181015491840191909152600281015491830191909152600381015460ff161515606083015260040154608082015292915050565b6000826040516108059190610b2a565b9081526040519081900360200190206003015460ff166108585760405162461bcd60e51b815260206004820152600e60248201526d444944206e6f742061637469766560901b604482015260640161025a565b806000836040516108699190610b2a565b9081526040519081900360200181206001019190915561088a908390610b2a565b60405180910390207fdb65f90272a25a1816c7b3b65f0f6451911df500a25558e344adf8c257519cd3826000856040516108c49190610b2a565b908152604051908190036020018120600201546102ed928252602082015260400190565b6040518060a0016040528060006001600160a01b031681526020016000815260200160008152602001600015158152602001600081525090565b634e487b7160e01b600052604160045260246000fd5b600082601f83011261094957600080fd5b813567ffffffffffffffff8082111561096457610964610922565b604051601f8301601f19908116603f0116810190828211818310171561098c5761098c610922565b816040528381528660208588010111156109a557600080fd5b836020870160208301376000602085830101528094505050505092915050565b600080604083850312156109d857600080fd5b823567ffffffffffffffff8111156109ef57600080fd5b6109fb85828601610938565b95602094909401359450505050565b80356001600160a01b0381168114610a2157600080fd5b919050565b60008060408385031215610a3957600080fd5b823567ffffffffffffffff811115610a5057600080fd5b610a5c85828601610938565b925050610a6b60208401610a0a565b90509250929050565b600060208284031215610a8657600080fd5b610a8f82610a0a565b9392505050565b60005b83811015610ab1578181015183820152602001610a99565b50506000910152565b6020815260008251806020840152610ad9816040850160208701610a96565b601f01601f19169190910160400192915050565b600060208284031215610aff57600080fd5b813567ffffffffffffffff811115610b1657600080fd5b610b2284828501610938565b949350505050565b60008251610b3c818460208701610a96565b9190910192915050565b600181811c90821680610b5a57607f821691505b602082108103610b7a57634e487b7160e01b600052602260045260246000fd5b50919050565b601f821115610bca57600081815260208120601f850160051c81016020861015610ba75750805b601f850160051c820191505b81811015610bc657828155600101610bb3565b5050505b505050565b815167ffffffffffffffff811115610be957610be9610922565b610bfd81610bf78454610b46565b84610b80565b602080601f831160018114610c325760008415610c1a5750858301515b600019600386901b1c1916600185901b178555610bc6565b600085815260208120601f198616915b82811015610c6157888601518255948401946001909101908401610c42565b5085821015610c7f5787850151600019600388901b60f8161c191681555b5050505050600190811b0190555056fea2646970667358221220fd59a02077faf356aea6dfee1f14701be4caabee631d26962d386a43ce05d91764736f6c63430008140033",
  "linkReferences": {},
  "deployedLinkReferences": {}
}